{"abi":[{"type":"constructor","inputs":[{"name":"tokenAddr","type":"address","internalType":"address"},{"name":"admin","type":"address","internalType":"address"}],"stateMutability":"nonpayable"},{"type":"function","name":"DEFAULT_ADMIN_ROLE","inputs":[],"outputs":[{"name":"","type":"bytes32","internalType":"bytes32"}],"stateMutability":"view"},{"type":"function","name":"MINTER_ROLE","inputs":[],"outputs":[{"name":"","type":"bytes32","internalType":"bytes32"}],"stateMutability":"view"},{"type":"function","name":"confirmDropOff","inputs":[{"name":"user","type":"address","internalType":"address"},{"name":"amount","type":"uint256","internalType":"uint256"},{"name":"collector","type":"address","internalType":"address"},{"name":"metadataHash","type":"bytes32","internalType":"bytes32"}],"outputs":[{"name":"","type":"uint256","internalType":"uint256"}],"stateMutability":"nonpayable"},{"type":"function","name":"confirmDropOffWithId","inputs":[{"name":"dropId","type":"uint256","internalType":"uint256"},{"name":"user","type":"address","internalType":"address"},{"name":"amount","type":"uint256","internalType":"uint256"},{"name":"collector","type":"address","internalType":"address"},{"name":"metadataHash","type":"bytes32","internalType":"bytes32"}],"outputs":[],"stateMutability":"nonpayable"},{"type":"function","name":"disputeDrop","inputs":[{"name":"dropId","type":"uint256","internalType":"uint256"},{"name":"reason","type":"string","internalType":"string"}],"outputs":[],"stateMutability":"nonpayable"},{"type":"function","name":"dropCount","inputs":[],"outputs":[{"name":"","type":"uint256","internalType":"uint256"}],"stateMutability":"view"},{"type":"function","name":"drops","inputs":[{"name":"","type":"uint256","internalType":"uint256"}],"outputs":[{"name":"user","type":"address","internalType":"address"},{"name":"amount","type":"uint256","internalType":"uint256"},{"name":"timestamp","type":"uint64","internalType":"uint64"},{"name":"collector","type":"address","internalType":"address"},{"name":"status","type":"uint8","internalType":"enum RewardManager.Status"},{"name":"metadataHash","type":"bytes32","internalType":"bytes32"}],"stateMutability":"view"},{"type":"function","name":"getDrop","inputs":[{"name":"dropId","type":"uint256","internalType":"uint256"}],"outputs":[{"name":"","type":"tuple","internalType":"struct RewardManager.Drop","components":[{"name":"user","type":"address","internalType":"address"},{"name":"amount","type":"uint256","internalType":"uint256"},{"name":"timestamp","type":"uint64","internalType":"uint64"},{"name":"collector","type":"address","internalType":"address"},{"name":"status","type":"uint8","internalType":"enum RewardManager.Status"},{"name":"metadataHash","type":"bytes32","internalType":"bytes32"}]}],"stateMutability":"view"},{"type":"function","name":"getRoleAdmin","inputs":[{"name":"role","type":"bytes32","internalType":"bytes32"}],"outputs":[{"name":"","type":"bytes32","internalType":"bytes32"}],"stateMutability":"view"},{"type":"function","name":"grantMinterRole","inputs":[{"name":"account","type":"address","internalType":"address"}],"outputs":[],"stateMutability":"nonpayable"},{"type":"function","name":"grantRole","inputs":[{"name":"role","type":"bytes32","internalType":"bytes32"},{"name":"account","type":"address","internalType":"address"}],"outputs":[],"stateMutability":"nonpayable"},{"type":"function","name":"hasRole","inputs":[{"name":"role","type":"bytes32","internalType":"bytes32"},{"name":"account","type":"address","internalType":"address"}],"outputs":[{"name":"","type":"bool","internalType":"bool"}],"stateMutability":"view"},{"type":"function","name":"renounceRole","inputs":[{"name":"role","type":"bytes32","internalType":"bytes32"},{"name":"callerConfirmation","type":"address","internalType":"address"}],"outputs":[],"stateMutability":"nonpayable"},{"type":"function","name":"revokeDrop","inputs":[{"name":"dropId","type":"uint256","internalType":"uint256"},{"name":"reason","type":"string","internalType":"string"}],"outputs":[],"stateMutability":"nonpayable"},{"type":"function","name":"revokeMinterRole","inputs":[{"name":"account","type":"address","internalType":"address"}],"outputs":[],"stateMutability":"nonpayable"},{"type":"function","name":"revokeRole","inputs":[{"name":"role","type":"bytes32","internalType":"bytes32"},{"name":"account","type":"address","internalType":"address"}],"outputs":[],"stateMutability":"nonpayable"},{"type":"function","name":"supportsInterface","inputs":[{"name":"interfaceId","type":"bytes4","internalType":"bytes4"}],"outputs":[{"name":"","type":"bool","internalType":"bool"}],"stateMutability":"view"},{"type":"function","name":"token","inputs":[],"outputs":[{"name":"","type":"address","internalType":"contract RecycloToken"}],"stateMutability":"view"},{"type":"event","name":"DropDisputed","inputs":[{"name":"dropId","type":"uint256","indexed":true,"internalType":"uint256"},{"name":"reason","type":"string","indexed":false,"internalType":"string"}],"anonymous":false},{"type":"event","name":"DropIssued","inputs":[{"name":"dropId","type":"uint256","indexed":true,"internalType":"uint256"},{"name":"user","type":"address","indexed":true,"internalType":"address"},{"name":"amount","type":"uint256","indexed":false,"internalType":"uint256"},{"name":"collector","type":"address","indexed":true,"internalType":"address"},{"name":"metadataHash","type":"bytes32","indexed":false,"internalType":"bytes32"}],"anonymous":false},{"type":"event","name":"DropRevoked","inputs":[{"name":"dropId","type":"uint256","indexed":true,"internalType":"uint256"},{"name":"reason","type":"string","indexed":false,"internalType":"string"}],"anonymous":false},{"type":"event","name":"RoleAdminChanged","inputs":[{"name":"role","type":"bytes32","indexed":true,"internalType":"bytes32"},{"name":"previousAdminRole","type":"bytes32","indexed":true,"internalType":"bytes32"},{"name":"newAdminRole","type":"bytes32","indexed":true,"internalType":"bytes32"}],"anonymous":false},{"type":"event","name":"RoleGranted","inputs":[{"name":"role","type":"bytes32","indexed":true,"internalType":"bytes32"},{"name":"account","type":"address","indexed":true,"internalType":"address"},{"name":"sender","type":"address","indexed":true,"internalType":"address"}],"anonymous":false},{"type":"event","name":"RoleRevoked","inputs":[{"name":"role","type":"bytes32","indexed":true,"internalType":"bytes32"},{"name":"account","type":"address","indexed":true,"internalType":"address"},{"name":"sender","type":"address","indexed":true,"internalType":"address"}],"anonymous":false},{"type":"error","name":"AccessControlBadConfirmation","inputs":[]},{"type":"error","name":"AccessControlUnauthorizedAccount","inputs":[{"name":"account","type":"address","internalType":"address"},{"name":"neededRole","type":"bytes32","internalType":"bytes32"}]}],"bytecode":{"object":"0x60a060405234801561000f575f5ffd5b5060405161138938038061138983398101604081905261002e91610111565b6001600160a01b0382166080526100455f8261004d565b505050610142565b5f828152602081815260408083206001600160a01b038516845290915281205460ff166100ed575f838152602081815260408083206001600160a01b03861684529091529020805460ff191660011790556100a53390565b6001600160a01b0316826001600160a01b0316847f2f8788117e7eff1d82e926ec794901d17c78024a50270940304540a733656f0d60405160405180910390a45060016100f0565b505f5b92915050565b80516001600160a01b038116811461010c575f5ffd5b919050565b5f5f60408385031215610122575f5ffd5b61012b836100f6565b9150610139602084016100f6565b90509250929050565b6080516112216101685f395f81816102e9015281816108b10152610bb501526112215ff3fe608060405234801561000f575f5ffd5b5060043610610111575f3560e01c806369e2f0fb1161009e578063bc0ab19b1161006e578063bc0ab19b14610297578063c806b892146102aa578063d5391393146102bd578063d547741f146102d1578063fc0c546a146102e4575f5ffd5b806369e2f0fb146102575780638a8edc561461026a57806391d148541461027d578063a217fddf14610290575f5ffd5b80633dd1eb61116100e45780633dd1eb61146101955780634d9e0b12146101a85780635eb39968146101bb57806366c14e0a1461022e5780636787d44914610237575f5ffd5b806301ffc9a714610115578063248a9ca31461013d5780632f2ff15d1461016d57806336568abe14610182575b5f5ffd5b610128610123366004610ead565b610323565b60405190151581526020015b60405180910390f35b61015f61014b366004610edb565b5f9081526020819052604090206001015490565b604051908152602001610134565b61018061017b366004610f0d565b610359565b005b610180610190366004610f0d565b610383565b6101806101a3366004610f37565b6103bb565b6101806101b6366004610f50565b6103dc565b61021c6101c9366004610edb565b600160208190525f918252604090912080549181015460028201546003909201546001600160a01b0393841693919267ffffffffffffffff811692600160401b82041691600160e01b90910460ff169086565b60405161013496959493929190610ffb565b61015f60025481565b61024a610245366004610edb565b6104cc565b6040516101349190611048565b610180610265366004610f37565b61059d565b6101806102783660046110a8565b6105be565b61012861028b366004610f0d565b610967565b61015f5f81565b61015f6102a53660046110f2565b61098f565b6101806102b8366004610f50565b610c6d565b61015f5f5160206111cc5f395f51905f5281565b6101806102df366004610f0d565b610d47565b61030b7f000000000000000000000000000000000000000000000000000000000000000081565b6040516001600160a01b039091168152602001610134565b5f6001600160e01b03198216637965db0b60e01b148061035357506301ffc9a760e01b6001600160e01b03198316145b92915050565b5f8281526020819052604090206001015461037381610d6b565b61037d8383610d78565b50505050565b6001600160a01b03811633146103ac5760405163334bd91960e11b815260040160405180910390fd5b6103b68282610e07565b505050565b5f6103c581610d6b565b6103b65f5160206111cc5f395f51905f5283610d78565b5f6103e681610d6b565b60015f85815260016020526040902060020154600160e01b900460ff16600381111561041457610414610fc7565b146104665760405162461bcd60e51b815260206004820152601e60248201527f5265776172644d616e616765723a2064726f70206e6f7420697373756564000060448201526064015b60405180910390fd5b5f8481526001602052604090206002908101805460ff60e01b1916600160e01b830217905550837f52141e3fcce764dbdb86f1457a28f8c6707a317a50c0adf004cf9c2ef8a68de284846040516104be929190611133565b60405180910390a250505050565b6040805160c0810182525f80825260208201819052918101829052606081018290526080810182905260a08101919091525f82815260016020818152604092839020835160c08101855281546001600160a01b0390811682529382015492810192909252600281015467ffffffffffffffff811694830194909452600160401b84049092166060820152916080830190600160e01b900460ff16600381111561057757610577610fc7565b600381111561058857610588610fc7565b81526020016003820154815250509050919050565b5f6105a781610d6b565b6103b65f5160206111cc5f395f51905f5283610e07565b5f5160206111cc5f395f51905f526105d581610d6b565b5f861180156105e657506002548611155b6106325760405162461bcd60e51b815260206004820152601d60248201527f5265776172644d616e616765723a20696e76616c69642064726f704964000000604482015260640161045d565b6001600160a01b0385166106885760405162461bcd60e51b815260206004820152601b60248201527f5265776172644d616e616765723a20696e76616c696420757365720000000000604482015260640161045d565b5f84116106a75760405162461bcd60e51b815260040161045d90611161565b6001600160a01b0383166106fd5760405162461bcd60e51b815260206004820181905260248201527f5265776172644d616e616765723a20696e76616c696420636f6c6c6563746f72604482015260640161045d565b5f5f87815260016020526040902060020154600160e01b900460ff16600381111561072a5761072a610fc7565b146107855760405162461bcd60e51b815260206004820152602560248201527f5265776172644d616e616765723a2064726f7020616c72656164792070726f63604482015264195cdcd95960da1b606482015260840161045d565b6040518060c00160405280866001600160a01b031681526020018581526020014267ffffffffffffffff168152602001846001600160a01b03168152602001600160038111156107d7576107d7610fc7565b815260209081018490525f8881526001808352604091829020845181546001600160a01b0319166001600160a01b03918216178255938501519181019190915590830151600282018054606086015167ffffffffffffffff9093166001600160e01b031990911617600160401b929094169190910292909217808355608084015191929060ff60e01b1916600160e01b83600381111561087957610879610fc7565b021790555060a091909101516003909101556040516340c10f1960e01b81526001600160a01b038681166004830152602482018690527f000000000000000000000000000000000000000000000000000000000000000016906340c10f19906044015f604051808303815f87803b1580156108f2575f5ffd5b505af1158015610904573d5f5f3e3d5ffd5b50505050826001600160a01b0316856001600160a01b0316877fd5ed63cdc6349cc090df491c5e80bfe77076c7032aa37c7bdba9e924c4fb25f68786604051610957929190918252602082015260400190565b60405180910390a4505050505050565b5f918252602082815260408084206001600160a01b0393909316845291905290205460ff1690565b5f5f5160206111cc5f395f51905f526109a781610d6b565b6001600160a01b0386166109fd5760405162461bcd60e51b815260206004820152601b60248201527f5265776172644d616e616765723a20696e76616c696420757365720000000000604482015260640161045d565b5f8511610a1c5760405162461bcd60e51b815260040161045d90611161565b6001600160a01b038416610a725760405162461bcd60e51b815260206004820181905260248201527f5265776172644d616e616765723a20696e76616c696420636f6c6c6563746f72604482015260640161045d565b5f60025f8154610a81906111a7565b91905081905590506040518060c00160405280886001600160a01b031681526020018781526020014267ffffffffffffffff168152602001866001600160a01b0316815260200160016003811115610adb57610adb610fc7565b815260209081018690525f8381526001808352604091829020845181546001600160a01b0319166001600160a01b03918216178255938501519181019190915590830151600282018054606086015167ffffffffffffffff9093166001600160e01b031990911617600160401b929094169190910292909217808355608084015191929060ff60e01b1916600160e01b836003811115610b7d57610b7d610fc7565b021790555060a091909101516003909101556040516340c10f1960e01b81526001600160a01b038881166004830152602482018890527f000000000000000000000000000000000000000000000000000000000000000016906340c10f19906044015f604051808303815f87803b158015610bf6575f5ffd5b505af1158015610c08573d5f5f3e3d5ffd5b50505050846001600160a01b0316876001600160a01b0316827fd5ed63cdc6349cc090df491c5e80bfe77076c7032aa37c7bdba9e924c4fb25f68988604051610c5b929190918252602082015260400190565b60405180910390a49695505050505050565b5f610c7781610d6b565b60015f85815260016020526040902060020154600160e01b900460ff166003811115610ca557610ca5610fc7565b14610cf25760405162461bcd60e51b815260206004820152601e60248201527f5265776172644d616e616765723a2064726f70206e6f74206973737565640000604482015260640161045d565b5f8481526001602052604090819020600201805460ff60e01b1916600360e01b1790555184907f64e8b75570ec8fe01ebee83858fc36b35234d652edcd8bff8d8f1291fe209903906104be9086908690611133565b5f82815260208190526040902060010154610d6181610d6b565b61037d8383610e07565b610d758133610e70565b50565b5f610d838383610967565b610e00575f838152602081815260408083206001600160a01b03861684529091529020805460ff19166001179055610db83390565b6001600160a01b0316826001600160a01b0316847f2f8788117e7eff1d82e926ec794901d17c78024a50270940304540a733656f0d60405160405180910390a4506001610353565b505f610353565b5f610e128383610967565b15610e00575f838152602081815260408083206001600160a01b0386168085529252808320805460ff1916905551339286917ff6391f5c32d9c69d2a47ea670b442974b53935d1edc7fd64eb21e047a839171b9190a4506001610353565b610e7a8282610967565b610ea95760405163e2517d3f60e01b81526001600160a01b03821660048201526024810183905260440161045d565b5050565b5f60208284031215610ebd575f5ffd5b81356001600160e01b031981168114610ed4575f5ffd5b9392505050565b5f60208284031215610eeb575f5ffd5b5035919050565b80356001600160a01b0381168114610f08575f5ffd5b919050565b5f5f60408385031215610f1e575f5ffd5b82359150610f2e60208401610ef2565b90509250929050565b5f60208284031215610f47575f5ffd5b610ed482610ef2565b5f5f5f60408486031215610f62575f5ffd5b83359250602084013567ffffffffffffffff811115610f7f575f5ffd5b8401601f81018613610f8f575f5ffd5b803567ffffffffffffffff811115610fa5575f5ffd5b866020828401011115610fb6575f5ffd5b939660209190910195509293505050565b634e487b7160e01b5f52602160045260245ffd5b60048110610ff757634e487b7160e01b5f52602160045260245ffd5b9052565b6001600160a01b0387811682526020820187905267ffffffffffffffff861660408301528416606082015260c081016110376080830185610fdb565b8260a0830152979650505050505050565b81516001600160a01b0390811682526020808401519083015260408084015167ffffffffffffffff16908301526060808401519091169082015260808083015160c083019161109990840182610fdb565b5060a092830151919092015290565b5f5f5f5f5f60a086880312156110bc575f5ffd5b853594506110cc60208701610ef2565b9350604086013592506110e160608701610ef2565b949793965091946080013592915050565b5f5f5f5f60808587031215611105575f5ffd5b61110e85610ef2565b93506020850135925061112360408601610ef2565b9396929550929360600135925050565b60208152816020820152818360408301375f818301604090810191909152601f909201601f19160101919050565b60208082526026908201527f5265776172644d616e616765723a20616d6f756e74206d75737420626520706f60408201526573697469766560d01b606082015260800190565b5f600182016111c457634e487b7160e01b5f52601160045260245ffd5b506001019056fe9f2df0fed2c77648de5860a4cc508cd0818c85b8b8a1ab4ceeef8d981c8956a6a26469706673582212200ef782096622ba3bc812c2b28aeaea601a24a6c2a02c7da9bd508cd31074357364736f6c634300081e0033","linkReferences":{}},"methodIdentifiers":{"DEFAULT_ADMIN_ROLE()":"a217fddf","MINTER_ROLE()":"d5391393","confirmDropOff(address,uint256,address,bytes32)":"bc0ab19b","confirmDropOffWithId(uint256,address,uint256,address,bytes32)":"8a8edc56","disputeDrop(uint256,string)":"c806b892","dropCount()":"66c14e0a","drops(uint256)":"5eb39968","getDrop(uint256)":"6787d449","getRoleAdmin(bytes32)":"248a9ca3","grantMinterRole(address)":"3dd1eb61","grantRole(bytes32,address)":"2f2ff15d","hasRole(bytes32,address)":"91d14854","renounceRole(bytes32,address)":"36568abe","revokeDrop(uint256,string)":"4d9e0b12","revokeMinterRole(address)":"69e2f0fb","revokeRole(bytes32,address)":"d547741f","supportsInterface(bytes4)":"01ffc9a7","token()":"fc0c546a"},"id":44}