{"abi":[{"type":"constructor","inputs":[{"name":"name_","type":"string","internalType":"string"},{"name":"symbol_","type":"string","internalType":"string"},{"name":"cap_","type":"uint256","internalType":"uint256"},{"name":"admin","type":"address","internalType":"address"}],"stateMutability":"nonpayable"},{"type":"function","name":"BURNER_ROLE","inputs":[],"outputs":[{"name":"","type":"bytes32","internalType":"bytes32"}],"stateMutability":"view"},{"type":"function","name":"DEFAULT_ADMIN_ROLE","inputs":[],"outputs":[{"name":"","type":"bytes32","internalType":"bytes32"}],"stateMutability":"view"},{"type":"function","name":"DOMAIN_SEPARATOR","inputs":[],"outputs":[{"name":"","type":"bytes32","internalType":"bytes32"}],"stateMutability":"view"},{"type":"function","name":"MINTER_ROLE","inputs":[],"outputs":[{"name":"","type":"bytes32","internalType":"bytes32"}],"stateMutability":"view"},{"type":"function","name":"allowance","inputs":[{"name":"owner","type":"address","internalType":"address"},{"name":"spender","type":"address","internalType":"address"}],"outputs":[{"name":"","type":"uint256","internalType":"uint256"}],"stateMutability":"view"},{"type":"function","name":"approve","inputs":[{"name":"spender","type":"address","internalType":"address"},{"name":"value","type":"uint256","internalType":"uint256"}],"outputs":[{"name":"","type":"bool","internalType":"bool"}],"stateMutability":"nonpayable"},{"type":"function","name":"balanceOf","inputs":[{"name":"account","type":"address","internalType":"address"}],"outputs":[{"name":"","type":"uint256","internalType":"uint256"}],"stateMutability":"view"},{"type":"function","name":"burn","inputs":[{"name":"from","type":"address","internalType":"address"},{"name":"amount","type":"uint256","internalType":"uint256"}],"outputs":[],"stateMutability":"nonpayable"},{"type":"function","name":"cap","inputs":[],"outputs":[{"name":"","type":"uint256","internalType":"uint256"}],"stateMutability":"view"},{"type":"function","name":"decimals","inputs":[],"outputs":[{"name":"","type":"uint8","internalType":"uint8"}],"stateMutability":"view"},{"type":"function","name":"eip712Domain","inputs":[],"outputs":[{"name":"fields","type":"bytes1","internalType":"bytes1"},{"name":"name","type":"string","internalType":"string"},{"name":"version","type":"string","internalType":"string"},{"name":"chainId","type":"uint256","internalType":"uint256"},{"name":"verifyingContract","type":"address","internalType":"address"},{"name":"salt","type":"bytes32","internalType":"bytes32"},{"name":"extensions","type":"uint256[]","internalType":"uint256[]"}],"stateMutability":"view"},{"type":"function","name":"getRoleAdmin","inputs":[{"name":"role","type":"bytes32","internalType":"bytes32"}],"outputs":[{"name":"","type":"bytes32","internalType":"bytes32"}],"stateMutability":"view"},{"type":"function","name":"grantBurnerRole","inputs":[{"name":"account","type":"address","internalType":"address"}],"outputs":[],"stateMutability":"nonpayable"},{"type":"function","name":"grantMinterRole","inputs":[{"name":"account","type":"address","internalType":"address"}],"outputs":[],"stateMutability":"nonpayable"},{"type":"function","name":"grantRole","inputs":[{"name":"role","type":"bytes32","internalType":"bytes32"},{"name":"account","type":"address","internalType":"address"}],"outputs":[],"stateMutability":"nonpayable"},{"type":"function","name":"hasRole","inputs":[{"name":"role","type":"bytes32","internalType":"bytes32"},{"name":"account","type":"address","internalType":"address"}],"outputs":[{"name":"","type":"bool","internalType":"bool"}],"stateMutability":"view"},{"type":"function","name":"mint","inputs":[{"name":"to","type":"address","internalType":"address"},{"name":"amount","type":"uint256","internalType":"uint256"}],"outputs":[],"stateMutability":"nonpayable"},{"type":"function","name":"name","inputs":[],"outputs":[{"name":"","type":"string","internalType":"string"}],"stateMutability":"view"},{"type":"function","name":"nonces","inputs":[{"name":"owner","type":"address","internalType":"address"}],"outputs":[{"name":"","type":"uint256","internalType":"uint256"}],"stateMutability":"view"},{"type":"function","name":"permit","inputs":[{"name":"owner","type":"address","internalType":"address"},{"name":"spender","type":"address","internalType":"address"},{"name":"value","type":"uint256","internalType":"uint256"},{"name":"deadline","type":"uint256","internalType":"uint256"},{"name":"v","type":"uint8","internalType":"uint8"},{"name":"r","type":"bytes32","internalType":"bytes32"},{"name":"s","type":"bytes32","internalType":"bytes32"}],"outputs":[],"stateMutability":"nonpayable"},{"type":"function","name":"renounceRole","inputs":[{"name":"role","type":"bytes32","internalType":"bytes32"},{"name":"callerConfirmation","type":"address","internalType":"address"}],"outputs":[],"stateMutability":"nonpayable"},{"type":"function","name":"revokeBurnerRole","inputs":[{"name":"account","type":"address","internalType":"address"}],"outputs":[],"stateMutability":"nonpayable"},{"type":"function","name":"revokeMinterRole","inputs":[{"name":"account","type":"address","internalType":"address"}],"outputs":[],"stateMutability":"nonpayable"},{"type":"function","name":"revokeRole","inputs":[{"name":"role","type":"bytes32","internalType":"bytes32"},{"name":"account","type":"address","internalType":"address"}],"outputs":[],"stateMutability":"nonpayable"},{"type":"function","name":"supportsInterface","inputs":[{"name":"interfaceId","type":"bytes4","internalType":"bytes4"}],"outputs":[{"name":"","type":"bool","internalType":"bool"}],"stateMutability":"view"},{"type":"function","name":"symbol","inputs":[],"outputs":[{"name":"","type":"string","internalType":"string"}],"stateMutability":"view"},{"type":"function","name":"totalSupply","inputs":[],"outputs":[{"name":"","type":"uint256","internalType":"uint256"}],"stateMutability":"view"},{"type":"function","name":"transfer","inputs":[{"name":"to","type":"address","internalType":"address"},{"name":"value","type":"uint256","internalType":"uint256"}],"outputs":[{"name":"","type":"bool","internalType":"bool"}],"stateMutability":"nonpayable"},{"type":"function","name":"transferFrom","inputs":[{"name":"from","type":"address","internalType":"address"},{"name":"to","type":"address","internalType":"address"},{"name":"value","type":"uint256","internalType":"uint256"}],"outputs":[{"name":"","type":"bool","internalType":"bool"}],"stateMutability":"nonpayable"},{"type":"event","name":"Approval","inputs":[{"name":"owner","type":"address","indexed":true,"internalType":"address"},{"name":"spender","type":"address","indexed":true,"internalType":"address"},{"name":"value","type":"uint256","indexed":false,"internalType":"uint256"}],"anonymous":false},{"type":"event","name":"EIP712DomainChanged","inputs":[],"anonymous":false},{"type":"event","name":"RoleAdminChanged","inputs":[{"name":"role","type":"bytes32","indexed":true,"internalType":"bytes32"},{"name":"previousAdminRole","type":"bytes32","indexed":true,"internalType":"bytes32"},{"name":"newAdminRole","type":"bytes32","indexed":true,"internalType":"bytes32"}],"anonymous":false},{"type":"event","name":"RoleGranted","inputs":[{"name":"role","type":"bytes32","indexed":true,"internalType":"bytes32"},{"name":"account","type":"address","indexed":true,"internalType":"address"},{"name":"sender","type":"address","indexed":true,"internalType":"address"}],"anonymous":false},{"type":"event","name":"RoleRevoked","inputs":[{"name":"role","type":"bytes32","indexed":true,"internalType":"bytes32"},{"name":"account","type":"address","indexed":true,"internalType":"address"},{"name":"sender","type":"address","indexed":true,"internalType":"address"}],"anonymous":false},{"type":"event","name":"TokensBurned","inputs":[{"name":"from","type":"address","indexed":true,"internalType":"address"},{"name":"amount","type":"uint256","indexed":false,"internalType":"uint256"}],"anonymous":false},{"type":"event","name":"TokensMinted","inputs":[{"name":"to","type":"address","indexed":true,"internalType":"address"},{"name":"amount","type":"uint256","indexed":false,"internalType":"uint256"}],"anonymous":false},{"type":"event","name":"Transfer","inputs":[{"name":"from","type":"address","indexed":true,"internalType":"address"},{"name":"to","type":"address","indexed":true,"internalType":"address"},{"name":"value","type":"uint256","indexed":false,"internalType":"uint256"}],"anonymous":false},{"type":"error","name":"AccessControlBadConfirmation","inputs":[]},{"type":"error","name":"AccessControlUnauthorizedAccount","inputs":[{"name":"account","type":"address","internalType":"address"},{"name":"neededRole","type":"bytes32","internalType":"bytes32"}]},{"type":"error","name":"ECDSAInvalidSignature","inputs":[]},{"type":"error","name":"ECDSAInvalidSignatureLength","inputs":[{"name":"length","type":"uint256","internalType":"uint256"}]},{"type":"error","name":"ECDSAInvalidSignatureS","inputs":[{"name":"s","type":"bytes32","internalType":"bytes32"}]},{"type":"error","name":"ERC20InsufficientAllowance","inputs":[{"name":"spender","type":"address","internalType":"address"},{"name":"allowance","type":"uint256","internalType":"uint256"},{"name":"needed","type":"uint256","internalType":"uint256"}]},{"type":"error","name":"ERC20InsufficientBalance","inputs":[{"name":"sender","type":"address","internalType":"address"},{"name":"balance","type":"uint256","internalType":"uint256"},{"name":"needed","type":"uint256","internalType":"uint256"}]},{"type":"error","name":"ERC20InvalidApprover","inputs":[{"name":"approver","type":"address","internalType":"address"}]},{"type":"error","name":"ERC20InvalidReceiver","inputs":[{"name":"receiver","type":"address","internalType":"address"}]},{"type":"error","name":"ERC20InvalidSender","inputs":[{"name":"sender","type":"address","internalType":"address"}]},{"type":"error","name":"ERC20InvalidSpender","inputs":[{"name":"spender","type":"address","internalType":"address"}]},{"type":"error","name":"ERC2612ExpiredSignature","inputs":[{"name":"deadline","type":"uint256","internalType":"uint256"}]},{"type":"error","name":"ERC2612InvalidSigner","inputs":[{"name":"signer","type":"address","internalType":"address"},{"name":"owner","type":"address","internalType":"address"}]},{"type":"error","name":"InvalidAccountNonce","inputs":[{"name":"account","type":"address","internalType":"address"},{"name":"currentNonce","type":"uint256","internalType":"uint256"}]},{"type":"error","name":"InvalidShortString","inputs":[]},{"type":"error","name":"StringTooLong","inputs":[{"name":"str","type":"string","internalType":"string"}]}],"bytecode":{"object":"0x610180604052348015610010575f5ffd5b50604051611bed380380611bed83398101604081905261002f9161039f565b6040805180820190915260018152603160f81b6020820152849081908186600361005983826104b0565b50600461006682826104b0565b50610076915083905060066101e8565b610120526100858160076101e8565b61014052815160208084019190912060e052815190820120610100524660a05261011160e05161010051604080517f8b73c3c69bb8fe3d512ecc4cf759cc79239f7b179b0ffacaa9a75d522b39400f60208201529081019290925260608201524660808201523060a08201525f9060c00160405160208183030381529060405280519060200120905090565b60805250503060c05250816101785760405162461bcd60e51b815260206004820152602260248201527f52656379636c6f546f6b656e3a20636170206d75737420626520706f73697469604482015261766560f01b60648201526084015b60405180910390fd5b6101608290526101885f8261021a565b506101b37f9f2df0fed2c77648de5860a4cc508cd0818c85b8b8a1ab4ceeef8d981c8956a68261021a565b506101de7f3c11d16cbaffd01df69ce1c404f6340ee057498f5f00246190ea54220576a8488261021a565b50505050506105c2565b5f602083511015610203576101fc836102c5565b9050610214565b8161020e84826104b0565b5060ff90505b92915050565b5f8281526005602090815260408083206001600160a01b038516845290915281205460ff166102be575f8381526005602090815260408083206001600160a01b03861684529091529020805460ff191660011790556102763390565b6001600160a01b0316826001600160a01b0316847f2f8788117e7eff1d82e926ec794901d17c78024a50270940304540a733656f0d60405160405180910390a4506001610214565b505f610214565b5f5f829050601f815111156102ef578260405163305a27a960e01b815260040161016f919061056a565b80516102fa8261059f565b179392505050565b634e487b7160e01b5f52604160045260245ffd5b5f82601f830112610325575f5ffd5b81516001600160401b0381111561033e5761033e610302565b604051601f8201601f19908116603f011681016001600160401b038111828210171561036c5761036c610302565b604052818152838201602001851015610383575f5ffd5b8160208501602083015e5f918101602001919091529392505050565b5f5f5f5f608085870312156103b2575f5ffd5b84516001600160401b038111156103c7575f5ffd5b6103d387828801610316565b602087015190955090506001600160401b038111156103f0575f5ffd5b6103fc87828801610316565b60408701516060880151919550935090506001600160a01b0381168114610421575f5ffd5b939692955090935050565b600181811c9082168061044057607f821691505b60208210810361045e57634e487b7160e01b5f52602260045260245ffd5b50919050565b601f8211156104ab57805f5260205f20601f840160051c810160208510156104895750805b601f840160051c820191505b818110156104a8575f8155600101610495565b50505b505050565b81516001600160401b038111156104c9576104c9610302565b6104dd816104d7845461042c565b84610464565b6020601f82116001811461050f575f83156104f85750848201515b5f19600385901b1c1916600184901b1784556104a8565b5f84815260208120601f198516915b8281101561053e578785015182556020948501946001909201910161051e565b508482101561055b57868401515f19600387901b60f8161c191681555b50505050600190811b01905550565b602081525f82518060208401528060208501604085015e5f604082850101526040601f19601f83011684010191505092915050565b8051602080830151919081101561045e575f1960209190910360031b1b16919050565b60805160a05160c05160e051610100516101205161014051610160516115c96106245f395f818161029e01526105f401525f610d0801525f610cdb01525f610be101525f610bb901525f610b1401525f610b3e01525f610b6801526115c95ff3fe608060405234801561000f575f5ffd5b50600436106101c6575f3560e01c806369e2f0fb116100fe578063a217fddf1161009e578063d53913931161006e578063d5391393146103d8578063d547741f146103ec578063d98d23b1146103ff578063dd62ed3e14610412575f5ffd5b8063a217fddf14610398578063a9059cbb1461039f578063c3052ffc146103b2578063d505accf146103c5575f5ffd5b806384b0196e116100d957806384b0196e1461034f57806391d148541461036a57806395d89b411461037d5780639dc29fac14610385575f5ffd5b806369e2f0fb1461030157806370a08231146103145780637ecebe001461033c575f5ffd5b80632f2ff15d116101695780633644e515116101445780633644e515146102c057806336568abe146102c85780633dd1eb61146102db57806340c10f19146102ee575f5ffd5b80632f2ff15d14610275578063313ce5671461028a578063355274ea14610299575f5ffd5b806318160ddd116101a457806318160ddd1461021a57806323b872dd1461022c578063248a9ca31461023f578063282c51f314610261575f5ffd5b806301ffc9a7146101ca57806306fdde03146101f2578063095ea7b314610207575b5f5ffd5b6101dd6101d8366004611278565b61044a565b60405190151581526020015b60405180910390f35b6101fa610480565b6040516101e991906112d4565b6101dd610215366004611301565b610510565b6002545b6040519081526020016101e9565b6101dd61023a366004611329565b610527565b61021e61024d366004611363565b5f9081526005602052604090206001015490565b61021e5f5160206115545f395f51905f5281565b61028861028336600461137a565b61054a565b005b604051601281526020016101e9565b61021e7f000000000000000000000000000000000000000000000000000000000000000081565b61021e610574565b6102886102d636600461137a565b610582565b6102886102e93660046113a4565b6105ba565b6102886102fc366004611301565b6105db565b61028861030f3660046113a4565b6106cc565b61021e6103223660046113a4565b6001600160a01b03165f9081526020819052604090205490565b61021e61034a3660046113a4565b6106ed565b61035761070a565b6040516101e997969594939291906113bd565b6101dd61037836600461137a565b61074c565b6101fa610776565b610288610393366004611301565b610785565b61021e5f81565b6101dd6103ad366004611301565b6107e1565b6102886103c03660046113a4565b6107ee565b6102886103d3366004611453565b61080f565b61021e5f5160206115745f395f51905f5281565b6102886103fa36600461137a565b610945565b61028861040d3660046113a4565b610969565b61021e6104203660046114c0565b6001600160a01b039182165f90815260016020908152604080832093909416825291909152205490565b5f6001600160e01b03198216637965db0b60e01b148061047a57506301ffc9a760e01b6001600160e01b03198316145b92915050565b60606003805461048f906114e8565b80601f01602080910402602001604051908101604052809291908181526020018280546104bb906114e8565b80156105065780601f106104dd57610100808354040283529160200191610506565b820191905f5260205f20905b8154815290600101906020018083116104e957829003601f168201915b5050505050905090565b5f3361051d81858561098a565b5060019392505050565b5f33610534858285610997565b61053f858585610a0d565b506001949350505050565b5f8281526005602052604090206001015461056481610a6a565b61056e8383610a77565b50505050565b5f61057d610b08565b905090565b6001600160a01b03811633146105ab5760405163334bd91960e11b815260040160405180910390fd5b6105b58282610c31565b505050565b5f6105c481610a6a565b6105b55f5160206115745f395f51905f5283610a77565b5f5160206115745f395f51905f526105f281610a6a565b7f00000000000000000000000000000000000000000000000000000000000000008261061d60025490565b6106279190611520565b111561067a5760405162461bcd60e51b815260206004820152601a60248201527f52656379636c6f546f6b656e3a2063617020657863656564656400000000000060448201526064015b60405180910390fd5b6106848383610c9c565b826001600160a01b03167f3f2c9d57c068687834f0de942a9babb9e5acab57d516d3480a3c16ee165a4273836040516106bf91815260200190565b60405180910390a2505050565b5f6106d681610a6a565b6105b55f5160206115745f395f51905f5283610c31565b6001600160a01b0381165f9081526008602052604081205461047a565b5f6060805f5f5f606061071b610cd4565b610723610d01565b604080515f80825260208201909252600f60f81b9b939a50919850469750309650945092509050565b5f9182526005602090815260408084206001600160a01b0393909316845291905290205460ff1690565b60606004805461048f906114e8565b5f5160206115545f395f51905f5261079c81610a6a565b6107a68383610d2e565b826001600160a01b03167ffd38818f5291bf0bb3a2a48aadc06ba8757865d1dabd804585338aab3009dcb6836040516106bf91815260200190565b5f3361051d818585610a0d565b5f6107f881610a6a565b6105b55f5160206115545f395f51905f5283610c31565b834211156108335760405163313c898160e11b815260048101859052602401610671565b5f7f6e71edae12b1b97f4d1f60370fef10105fa2faae0126114a169c64845d6126c988888861087e8c6001600160a01b03165f90815260086020526040902080546001810190915590565b6040805160208101969096526001600160a01b0394851690860152929091166060840152608083015260a082015260c0810186905260e0016040516020818303038152906040528051906020012090505f6108d882610d62565b90505f6108e782878787610d8e565b9050896001600160a01b0316816001600160a01b03161461092e576040516325c0072360e11b81526001600160a01b0380831660048301528b166024820152604401610671565b6109398a8a8a61098a565b50505050505050505050565b5f8281526005602052604090206001015461095f81610a6a565b61056e8383610c31565b5f61097381610a6a565b6105b55f5160206115545f395f51905f5283610a77565b6105b58383836001610dba565b6001600160a01b038381165f908152600160209081526040808320938616835292905220545f1981101561056e57818110156109ff57604051637dc7a0d960e11b81526001600160a01b03841660048201526024810182905260448101839052606401610671565b61056e84848484035f610dba565b6001600160a01b038316610a3657604051634b637e8f60e11b81525f6004820152602401610671565b6001600160a01b038216610a5f5760405163ec442f0560e01b81525f6004820152602401610671565b6105b5838383610e8c565b610a748133610fb2565b50565b5f610a82838361074c565b610b01575f8381526005602090815260408083206001600160a01b03861684529091529020805460ff19166001179055610ab93390565b6001600160a01b0316826001600160a01b0316847f2f8788117e7eff1d82e926ec794901d17c78024a50270940304540a733656f0d60405160405180910390a450600161047a565b505f61047a565b5f306001600160a01b037f000000000000000000000000000000000000000000000000000000000000000016148015610b6057507f000000000000000000000000000000000000000000000000000000000000000046145b15610b8a57507f000000000000000000000000000000000000000000000000000000000000000090565b61057d604080517f8b73c3c69bb8fe3d512ecc4cf759cc79239f7b179b0ffacaa9a75d522b39400f60208201527f0000000000000000000000000000000000000000000000000000000000000000918101919091527f000000000000000000000000000000000000000000000000000000000000000060608201524660808201523060a08201525f9060c00160405160208183030381529060405280519060200120905090565b5f610c3c838361074c565b15610b01575f8381526005602090815260408083206001600160a01b0386168085529252808320805460ff1916905551339286917ff6391f5c32d9c69d2a47ea670b442974b53935d1edc7fd64eb21e047a839171b9190a450600161047a565b6001600160a01b038216610cc55760405163ec442f0560e01b81525f6004820152602401610671565b610cd05f8383610e8c565b5050565b606061057d7f00000000000000000000000000000000000000000000000000000000000000006006610feb565b606061057d7f00000000000000000000000000000000000000000000000000000000000000006007610feb565b6001600160a01b038216610d5757604051634b637e8f60e11b81525f6004820152602401610671565b610cd0825f83610e8c565b5f61047a610d6e610b08565b8360405161190160f01b8152600281019290925260228201526042902090565b5f5f5f5f610d9e88888888611094565b925092509250610dae828261115c565b50909695505050505050565b6001600160a01b038416610de35760405163e602df0560e01b81525f6004820152602401610671565b6001600160a01b038316610e0c57604051634a1406b160e11b81525f6004820152602401610671565b6001600160a01b038085165f908152600160209081526040808320938716835292905220829055801561056e57826001600160a01b0316846001600160a01b03167f8c5be1e5ebec7d5bd14f71427d1e84f3dd0314c0f7b2291e5b200ac8c7c3b92584604051610e7e91815260200190565b60405180910390a350505050565b6001600160a01b038316610eb6578060025f828254610eab9190611520565b90915550610f269050565b6001600160a01b0383165f9081526020819052604090205481811015610f085760405163391434e360e21b81526001600160a01b03851660048201526024810182905260448101839052606401610671565b6001600160a01b0384165f9081526020819052604090209082900390555b6001600160a01b038216610f4257600280548290039055610f60565b6001600160a01b0382165f9081526020819052604090208054820190555b816001600160a01b0316836001600160a01b03167fddf252ad1be2c89b69c2b068fc378daa952ba7f163c4a11628f55a4df523b3ef83604051610fa591815260200190565b60405180910390a3505050565b610fbc828261074c565b610cd05760405163e2517d3f60e01b81526001600160a01b038216600482015260248101839052604401610671565b606060ff831461100557610ffe83611214565b905061047a565b818054611011906114e8565b80601f016020809104026020016040519081016040528092919081815260200182805461103d906114e8565b80156110885780601f1061105f57610100808354040283529160200191611088565b820191905f5260205f20905b81548152906001019060200180831161106b57829003601f168201915b5050505050905061047a565b5f80807f7fffffffffffffffffffffffffffffff5d576e7357a4501ddfe92f46681b20a08411156110cd57505f91506003905082611152565b604080515f808252602082018084528a905260ff891692820192909252606081018790526080810186905260019060a0016020604051602081039080840390855afa15801561111e573d5f5f3e3d5ffd5b5050604051601f1901519150506001600160a01b03811661114957505f925060019150829050611152565b92505f91508190505b9450945094915050565b5f82600381111561116f5761116f61153f565b03611178575050565b600182600381111561118c5761118c61153f565b036111aa5760405163f645eedf60e01b815260040160405180910390fd5b60028260038111156111be576111be61153f565b036111df5760405163fce698f760e01b815260048101829052602401610671565b60038260038111156111f3576111f361153f565b03610cd0576040516335e2f38360e21b815260048101829052602401610671565b60605f61122083611251565b6040805160208082528183019092529192505f91906020820181803683375050509182525060208101929092525090565b5f60ff8216601f81111561047a57604051632cd44ac360e21b815260040160405180910390fd5b5f60208284031215611288575f5ffd5b81356001600160e01b03198116811461129f575f5ffd5b9392505050565b5f81518084528060208401602086015e5f602082860101526020601f19601f83011685010191505092915050565b602081525f61129f60208301846112a6565b80356001600160a01b03811681146112fc575f5ffd5b919050565b5f5f60408385031215611312575f5ffd5b61131b836112e6565b946020939093013593505050565b5f5f5f6060848603121561133b575f5ffd5b611344846112e6565b9250611352602085016112e6565b929592945050506040919091013590565b5f60208284031215611373575f5ffd5b5035919050565b5f5f6040838503121561138b575f5ffd5b8235915061139b602084016112e6565b90509250929050565b5f602082840312156113b4575f5ffd5b61129f826112e6565b60ff60f81b8816815260e060208201525f6113db60e08301896112a6565b82810360408401526113ed81896112a6565b606084018890526001600160a01b038716608085015260a0840186905283810360c0850152845180825260208087019350909101905f5b81811015611442578351835260209384019390920191600101611424565b50909b9a5050505050505050505050565b5f5f5f5f5f5f5f60e0888a031215611469575f5ffd5b611472886112e6565b9650611480602089016112e6565b95506040880135945060608801359350608088013560ff811681146114a3575f5ffd5b9699959850939692959460a0840135945060c09093013592915050565b5f5f604083850312156114d1575f5ffd5b6114da836112e6565b915061139b602084016112e6565b600181811c908216806114fc57607f821691505b60208210810361151a57634e487b7160e01b5f52602260045260245ffd5b50919050565b8082018082111561047a57634e487b7160e01b5f52601160045260245ffd5b634e487b7160e01b5f52602160045260245ffdfe3c11d16cbaffd01df69ce1c404f6340ee057498f5f00246190ea54220576a8489f2df0fed2c77648de5860a4cc508cd0818c85b8b8a1ab4ceeef8d981c8956a6a2646970667358221220d7d66390c960b1420e7f2fe5a64974e8c65ac012f34cc1308e585db6aa5149e664736f6c634300081e0033","linkReferences":{}},"methodIdentifiers":{"BURNER_ROLE()":"282c51f3","DEFAULT_ADMIN_ROLE()":"a217fddf","DOMAIN_SEPARATOR()":"3644e515","MINTER_ROLE()":"d5391393","allowance(address,address)":"dd62ed3e","approve(address,uint256)":"095ea7b3","balanceOf(address)":"70a08231","burn(address,uint256)":"9dc29fac","cap()":"355274ea","decimals()":"313ce567","eip712Domain()":"84b0196e","getRoleAdmin(bytes32)":"248a9ca3","grantBurnerRole(address)":"d98d23b1","grantMinterRole(address)":"3dd1eb61","grantRole(bytes32,address)":"2f2ff15d","hasRole(bytes32,address)":"91d14854","mint(address,uint256)":"40c10f19","name()":"06fdde03","nonces(address)":"7ecebe00","permit(address,address,uint256,uint256,uint8,bytes32,bytes32)":"d505accf","renounceRole(bytes32,address)":"36568abe","revokeBurnerRole(address)":"c3052ffc","revokeMinterRole(address)":"69e2f0fb","revokeRole(bytes32,address)":"d547741f","supportsInterface(bytes4)":"01ffc9a7","symbol()":"95d89b41","totalSupply()":"18160ddd","transfer(address,uint256)":"a9059cbb","transferFrom(address,address,uint256)":"23b872dd"},"id":43}