{"abi":[{"type":"constructor","inputs":[{"name":"tokenAddr","type":"address","internalType":"address"},{"name":"admin","type":"address","internalType":"address"}],"stateMutability":"nonpayable"},{"type":"function","name":"DEFAULT_ADMIN_ROLE","inputs":[],"outputs":[{"name":"","type":"bytes32","internalType":"bytes32"}],"stateMutability":"view"},{"type":"function","name":"LISTER_ROLE","inputs":[],"outputs":[{"name":"","type":"bytes32","internalType":"bytes32"}],"stateMutability":"view"},{"type":"function","name":"buyListing","inputs":[{"name":"listingId","type":"uint256","internalType":"uint256"},{"name":"quantity","type":"uint256","internalType":"uint256"}],"outputs":[],"stateMutability":"nonpayable"},{"type":"function","name":"cancelListing","inputs":[{"name":"listingId","type":"uint256","internalType":"uint256"}],"outputs":[],"stateMutability":"nonpayable"},{"type":"function","name":"createListing","inputs":[{"name":"quantity","type":"uint256","internalType":"uint256"},{"name":"pricePerUnit","type":"uint256","internalType":"uint256"},{"name":"metaHash","type":"bytes32","internalType":"bytes32"}],"outputs":[{"name":"","type":"uint256","internalType":"uint256"}],"stateMutability":"nonpayable"},{"type":"function","name":"getListing","inputs":[{"name":"listingId","type":"uint256","internalType":"uint256"}],"outputs":[{"name":"","type":"tuple","internalType":"struct Marketplace.Listing","components":[{"name":"seller","type":"address","internalType":"address"},{"name":"quantity","type":"uint256","internalType":"uint256"},{"name":"pricePerUnit","type":"uint256","internalType":"uint256"},{"name":"metaHash","type":"bytes32","internalType":"bytes32"},{"name":"active","type":"bool","internalType":"bool"},{"name":"createdAt","type":"uint64","internalType":"uint64"}]}],"stateMutability":"view"},{"type":"function","name":"getRoleAdmin","inputs":[{"name":"role","type":"bytes32","internalType":"bytes32"}],"outputs":[{"name":"","type":"bytes32","internalType":"bytes32"}],"stateMutability":"view"},{"type":"function","name":"grantListerRole","inputs":[{"name":"account","type":"address","internalType":"address"}],"outputs":[],"stateMutability":"nonpayable"},{"type":"function","name":"grantRole","inputs":[{"name":"role","type":"bytes32","internalType":"bytes32"},{"name":"account","type":"address","internalType":"address"}],"outputs":[],"stateMutability":"nonpayable"},{"type":"function","name":"hasRole","inputs":[{"name":"role","type":"bytes32","internalType":"bytes32"},{"name":"account","type":"address","internalType":"address"}],"outputs":[{"name":"","type":"bool","internalType":"bool"}],"stateMutability":"view"},{"type":"function","name":"listingCount","inputs":[],"outputs":[{"name":"","type":"uint256","internalType":"uint256"}],"stateMutability":"view"},{"type":"function","name":"listings","inputs":[{"name":"","type":"uint256","internalType":"uint256"}],"outputs":[{"name":"seller","type":"address","internalType":"address"},{"name":"quantity","type":"uint256","internalType":"uint256"},{"name":"pricePerUnit","type":"uint256","internalType":"uint256"},{"name":"metaHash","type":"bytes32","internalType":"bytes32"},{"name":"active","type":"bool","internalType":"bool"},{"name":"createdAt","type":"uint64","internalType":"uint64"}],"stateMutability":"view"},{"type":"function","name":"renounceRole","inputs":[{"name":"role","type":"bytes32","internalType":"bytes32"},{"name":"callerConfirmation","type":"address","internalType":"address"}],"outputs":[],"stateMutability":"nonpayable"},{"type":"function","name":"revokeRole","inputs":[{"name":"role","type":"bytes32","internalType":"bytes32"},{"name":"account","type":"address","internalType":"address"}],"outputs":[],"stateMutability":"nonpayable"},{"type":"function","name":"supportsInterface","inputs":[{"name":"interfaceId","type":"bytes4","internalType":"bytes4"}],"outputs":[{"name":"","type":"bool","internalType":"bool"}],"stateMutability":"view"},{"type":"function","name":"token","inputs":[],"outputs":[{"name":"","type":"address","internalType":"contract RecycloToken"}],"stateMutability":"view"},{"type":"event","name":"ListingBought","inputs":[{"name":"id","type":"uint256","indexed":true,"internalType":"uint256"},{"name":"buyer","type":"address","indexed":true,"internalType":"address"},{"name":"quantity","type":"uint256","indexed":false,"internalType":"uint256"}],"anonymous":false},{"type":"event","name":"ListingCancelled","inputs":[{"name":"id","type":"uint256","indexed":true,"internalType":"uint256"}],"anonymous":false},{"type":"event","name":"ListingCreated","inputs":[{"name":"id","type":"uint256","indexed":true,"internalType":"uint256"},{"name":"seller","type":"address","indexed":true,"internalType":"address"},{"name":"quantity","type":"uint256","indexed":false,"internalType":"uint256"},{"name":"pricePerUnit","type":"uint256","indexed":false,"internalType":"uint256"},{"name":"metaHash","type":"bytes32","indexed":false,"internalType":"bytes32"}],"anonymous":false},{"type":"event","name":"RoleAdminChanged","inputs":[{"name":"role","type":"bytes32","indexed":true,"internalType":"bytes32"},{"name":"previousAdminRole","type":"bytes32","indexed":true,"internalType":"bytes32"},{"name":"newAdminRole","type":"bytes32","indexed":true,"internalType":"bytes32"}],"anonymous":false},{"type":"event","name":"RoleGranted","inputs":[{"name":"role","type":"bytes32","indexed":true,"internalType":"bytes32"},{"name":"account","type":"address","indexed":true,"internalType":"address"},{"name":"sender","type":"address","indexed":true,"internalType":"address"}],"anonymous":false},{"type":"event","name":"RoleRevoked","inputs":[{"name":"role","type":"bytes32","indexed":true,"internalType":"bytes32"},{"name":"account","type":"address","indexed":true,"internalType":"address"},{"name":"sender","type":"address","indexed":true,"internalType":"address"}],"anonymous":false},{"type":"error","name":"AccessControlBadConfirmation","inputs":[]},{"type":"error","name":"AccessControlUnauthorizedAccount","inputs":[{"name":"account","type":"address","internalType":"address"},{"name":"neededRole","type":"bytes32","internalType":"bytes32"}]}],"bytecode":{"object":"0x60a060405234801561000f575f5ffd5b50604051610ec1380380610ec183398101604081905261002e9161013c565b6001600160a01b0382166080526100455f82610078565b506100707ff94103142c1baabe9ac2b5d1487bf783de9e69cfeea9a72f5c9c94afd7877b8c82610078565b50505061016d565b5f828152602081815260408083206001600160a01b038516845290915281205460ff16610118575f838152602081815260408083206001600160a01b03861684529091529020805460ff191660011790556100d03390565b6001600160a01b0316826001600160a01b0316847f2f8788117e7eff1d82e926ec794901d17c78024a50270940304540a733656f0d60405160405180910390a450600161011b565b505f5b92915050565b80516001600160a01b0381168114610137575f5ffd5b919050565b5f5f6040838503121561014d575f5ffd5b61015683610121565b915061016460208401610121565b90509250929050565b608051610d3561018c5f395f81816103c301526106e70152610d355ff3fe608060405234801561000f575f5ffd5b50600436106100fb575f3560e01c806391d1485411610093578063de74e57b11610063578063de74e57b146102f9578063deb26b9414610397578063fc0c546a146103be578063fd1f8315146103fd575f5ffd5b806391d14854146102c3578063a217fddf146102d6578063a9b07c26146102dd578063d547741f146102e6575f5ffd5b80632f2ff15d116100ce5780632f2ff15d14610277578063305a67a81461028a57806336568abe1461029d5780636d0ba1d3146102b0575f5ffd5b806301ffc9a7146100ff578063107a274a146101275780631f29b9d514610232578063248a9ca314610247575b5f5ffd5b61011261010d366004610b9e565b610410565b60405190151581526020015b60405180910390f35b6101d6610135366004610bcc565b6040805160c0810182525f80825260208201819052918101829052606081018290526080810182905260a0810191909152505f90815260016020818152604092839020835160c08101855281546001600160a01b0316815292810154918301919091526002810154928201929092526003820154606082015260049091015460ff811615156080830152610100900467ffffffffffffffff1660a082015290565b60405161011e919081516001600160a01b0316815260208083015190820152604080830151908201526060808301519082015260808083015115159082015260a09182015167ffffffffffffffff169181019190915260c00190565b610245610240366004610bfe565b610446565b005b610269610255366004610bcc565b5f9081526020819052604090206001015490565b60405190815260200161011e565b610245610285366004610c17565b61047f565b610245610298366004610bcc565b6104a9565b6102456102ab366004610c17565b6105b2565b6102456102be366004610c41565b6105e5565b6101126102d1366004610c17565b610815565b6102695f81565b61026960025481565b6102456102f4366004610c17565b61083d565b610354610307366004610bcc565b600160208190525f9182526040909120805491810154600282015460038301546004909301546001600160a01b03909416939192909160ff811690610100900467ffffffffffffffff1686565b604080516001600160a01b03909716875260208701959095529385019290925260608401521515608083015267ffffffffffffffff1660a082015260c00161011e565b6102697ff94103142c1baabe9ac2b5d1487bf783de9e69cfeea9a72f5c9c94afd7877b8c81565b6103e57f000000000000000000000000000000000000000000000000000000000000000081565b6040516001600160a01b03909116815260200161011e565b61026961040b366004610c61565b610861565b5f6001600160e01b03198216637965db0b60e01b148061044057506301ffc9a760e01b6001600160e01b03198316145b92915050565b5f61045081610a5c565b61047a7ff94103142c1baabe9ac2b5d1487bf783de9e69cfeea9a72f5c9c94afd7877b8c83610a69565b505050565b5f8281526020819052604090206001015461049981610a5c565b6104a38383610a69565b50505050565b5f81815260016020526040902080546001600160a01b03163314806104d357506104d35f33610815565b6105245760405162461bcd60e51b815260206004820152601b60248201527f4d61726b6574706c6163653a206e6f7420617574686f72697a6564000000000060448201526064015b60405180910390fd5b600481015460ff166105785760405162461bcd60e51b815260206004820152601f60248201527f4d61726b6574706c6163653a206c697374696e67206e6f742061637469766500604482015260640161051b565b60048101805460ff1916905560405182907f411aee90354c51b1b04cd563fcab2617142a9d50da19232d888547c8a1b7fd8a905f90a25050565b6001600160a01b03811633146105db5760405163334bd91960e11b815260040160405180910390fd5b61047a8282610af8565b5f828152600160205260409020600481015460ff166106465760405162461bcd60e51b815260206004820152601f60248201527f4d61726b6574706c6163653a206c697374696e67206e6f742061637469766500604482015260640161051b565b80600101548211156106a55760405162461bcd60e51b815260206004820152602260248201527f4d61726b6574706c6163653a20696e73756666696369656e74207175616e7469604482015261747960f01b606482015260840161051b565b5f8160020154836106b69190610c9e565b82546040516323b872dd60e01b81523360048201526001600160a01b039182166024820152604481018390529192507f000000000000000000000000000000000000000000000000000000000000000016906323b872dd906064016020604051808303815f875af115801561072d573d5f5f3e3d5ffd5b505050506040513d601f19601f820116820180604052508101906107519190610cb5565b6107a85760405162461bcd60e51b815260206004820152602260248201527f4d61726b6574706c6163653a20746f6b656e207472616e73666572206661696c604482015261195960f21b606482015260840161051b565b82826001015f8282546107bb9190610cd4565b909155505060018201545f036107d85760048201805460ff191690555b604051838152339085907f353f76da30e3999180c686b8fab4aa0ef83daa7cfa7326158d5283490dda598f9060200160405180910390a350505050565b5f918252602082815260408084206001600160a01b0393909316845291905290205460ff1690565b5f8281526020819052604090206001015461085781610a5c565b6104a38383610af8565b5f7ff94103142c1baabe9ac2b5d1487bf783de9e69cfeea9a72f5c9c94afd7877b8c61088c81610a5c565b5f85116108ea5760405162461bcd60e51b815260206004820152602660248201527f4d61726b6574706c6163653a207175616e74697479206d75737420626520706f60448201526573697469766560d01b606482015260840161051b565b5f84116109455760405162461bcd60e51b815260206004820152602360248201527f4d61726b6574706c6163653a207072696365206d75737420626520706f73697460448201526269766560e81b606482015260840161051b565b5f60025f815461095490610ce7565b91829055506040805160c0810182523380825260208083018b81528385018b815260608086018c81526001608088018181524267ffffffffffffffff90811660a08b019081525f8d8152848a528c90209a518b546001600160a01b0319166001600160a01b03909116178b559651928a01929092559351600289015590516003880155915160049096018054935168ffffffffffffffffff1990941696151568ffffffffffffffff0019169690961761010093909216929092021790935583518b81529081018a905292830188905292935083917f730063187f82d9a3a944fdde115341fb1743cc3c944b17dd09981bc89de4ed25910160405180910390a395945050505050565b610a668133610b61565b50565b5f610a748383610815565b610af1575f838152602081815260408083206001600160a01b03861684529091529020805460ff19166001179055610aa93390565b6001600160a01b0316826001600160a01b0316847f2f8788117e7eff1d82e926ec794901d17c78024a50270940304540a733656f0d60405160405180910390a4506001610440565b505f610440565b5f610b038383610815565b15610af1575f838152602081815260408083206001600160a01b0386168085529252808320805460ff1916905551339286917ff6391f5c32d9c69d2a47ea670b442974b53935d1edc7fd64eb21e047a839171b9190a4506001610440565b610b6b8282610815565b610b9a5760405163e2517d3f60e01b81526001600160a01b03821660048201526024810183905260440161051b565b5050565b5f60208284031215610bae575f5ffd5b81356001600160e01b031981168114610bc5575f5ffd5b9392505050565b5f60208284031215610bdc575f5ffd5b5035919050565b80356001600160a01b0381168114610bf9575f5ffd5b919050565b5f60208284031215610c0e575f5ffd5b610bc582610be3565b5f5f60408385031215610c28575f5ffd5b82359150610c3860208401610be3565b90509250929050565b5f5f60408385031215610c52575f5ffd5b50508035926020909101359150565b5f5f5f60608486031215610c73575f5ffd5b505081359360208301359350604090920135919050565b634e487b7160e01b5f52601160045260245ffd5b808202811582820484141761044057610440610c8a565b5f60208284031215610cc5575f5ffd5b81518015158114610bc5575f5ffd5b8181038181111561044057610440610c8a565b5f60018201610cf857610cf8610c8a565b506001019056fea2646970667358221220b402e59bd55f596f171f6e9a9bec227f5ab8436e2535aa29c5ad06f9d8840a8964736f6c634300081e0033","linkReferences":{}},"methodIdentifiers":{"DEFAULT_ADMIN_ROLE()":"a217fddf","LISTER_ROLE()":"deb26b94","buyListing(uint256,uint256)":"6d0ba1d3","cancelListing(uint256)":"305a67a8","createListing(uint256,uint256,bytes32)":"fd1f8315","getListing(uint256)":"107a274a","getRoleAdmin(bytes32)":"248a9ca3","grantListerRole(address)":"1f29b9d5","grantRole(bytes32,address)":"2f2ff15d","hasRole(bytes32,address)":"91d14854","listingCount()":"a9b07c26","listings(uint256)":"de74e57b","renounceRole(bytes32,address)":"36568abe","revokeRole(bytes32,address)":"d547741f","supportsInterface(bytes4)":"01ffc9a7","token()":"fc0c546a"},"id":42}